{
  "abi": [
    {
      "inputs": [
        {
          "internalType": "string",
          "name": "_name",
          "type": "string"
        },
        {
          "internalType": "string",
          "name": "_symbol",
          "type": "string"
        },
        {
          "internalType": "contract Strings",
          "name": "_strings",
          "type": "address"
        }
      ],
      "stateMutability": "nonpayable",
      "type": "constructor"
    },
    {
      "inputs": [],
      "name": "MaxSupply",
      "type": "error"
    },
    {
      "inputs": [],
      "name": "NonExistentTokenURI",
      "type": "error"
    },
    {
      "anonymous": false,
      "inputs": [
        {
          "indexed": true,
          "internalType": "address",
          "name": "owner",
          "type": "address"
        },
        {
          "indexed": true,
          "internalType": "address",
          "name": "spender",
          "type": "address"
        },
        {
          "indexed": true,
          "internalType": "uint256",
          "name": "id",
          "type": "uint256"
        }
      ],
      "name": "Approval",
      "type": "event"
    },
    {
      "anonymous": false,
      "inputs": [
        {
          "indexed": true,
          "internalType": "address",
          "name": "owner",
          "type": "address"
        },
        {
          "indexed": true,
          "internalType": "address",
          "name": "operator",
          "type": "address"
        },
        {
          "indexed": false,
          "internalType": "bool",
          "name": "approved",
          "type": "bool"
        }
      ],
      "name": "ApprovalForAll",
      "type": "event"
    },
    {
      "anonymous": false,
      "inputs": [
        {
          "indexed": true,
          "internalType": "address",
          "name": "previousOwner",
          "type": "address"
        },
        {
          "indexed": true,
          "internalType": "address",
          "name": "newOwner",
          "type": "address"
        }
      ],
      "name": "OwnershipTransferred",
      "type": "event"
    },
    {
      "anonymous": false,
      "inputs": [
        {
          "indexed": true,
          "internalType": "address",
          "name": "from",
          "type": "address"
        },
        {
          "indexed": true,
          "internalType": "address",
          "name": "to",
          "type": "address"
        },
        {
          "indexed": true,
          "internalType": "uint256",
          "name": "id",
          "type": "uint256"
        }
      ],
      "name": "Transfer",
      "type": "event"
    },
    {
      "inputs": [],
      "name": "TOTAL_SUPPLY",
      "outputs": [
        {
          "internalType": "uint256",
          "name": "",
          "type": "uint256"
        }
      ],
      "stateMutability": "view",
      "type": "function"
    },
    {
      "inputs": [
        {
          "internalType": "address",
          "name": "spender",
          "type": "address"
        },
        {
          "internalType": "uint256",
          "name": "id",
          "type": "uint256"
        }
      ],
      "name": "approve",
      "outputs": [],
      "stateMutability": "nonpayable",
      "type": "function"
    },
    {
      "inputs": [
        {
          "internalType": "uint256",
          "name": "",
          "type": "uint256"
        }
      ],
      "name": "attributes",
      "outputs": [
        {
          "internalType": "uint256",
          "name": "",
          "type": "uint256"
        }
      ],
      "stateMutability": "view",
      "type": "function"
    },
    {
      "inputs": [
        {
          "internalType": "address",
          "name": "",
          "type": "address"
        }
      ],
      "name": "balanceOf",
      "outputs": [
        {
          "internalType": "uint256",
          "name": "",
          "type": "uint256"
        }
      ],
      "stateMutability": "view",
      "type": "function"
    },
    {
      "inputs": [],
      "name": "baseURI",
      "outputs": [
        {
          "internalType": "string",
          "name": "",
          "type": "string"
        }
      ],
      "stateMutability": "view",
      "type": "function"
    },
    {
      "inputs": [],
      "name": "currentTokenId",
      "outputs": [
        {
          "internalType": "uint256",
          "name": "",
          "type": "uint256"
        }
      ],
      "stateMutability": "view",
      "type": "function"
    },
    {
      "inputs": [
        {
          "internalType": "uint256",
          "name": "",
          "type": "uint256"
        }
      ],
      "name": "getApproved",
      "outputs": [
        {
          "internalType": "address",
          "name": "",
          "type": "address"
        }
      ],
      "stateMutability": "view",
      "type": "function"
    },
    {
      "inputs": [
        {
          "internalType": "address",
          "name": "",
          "type": "address"
        },
        {
          "internalType": "address",
          "name": "",
          "type": "address"
        }
      ],
      "name": "isApprovedForAll",
      "outputs": [
        {
          "internalType": "bool",
          "name": "",
          "type": "bool"
        }
      ],
      "stateMutability": "view",
      "type": "function"
    },
    {
      "inputs": [
        {
          "internalType": "address",
          "name": "recipient",
          "type": "address"
        }
      ],
      "name": "mintTo",
      "outputs": [
        {
          "internalType": "uint256",
          "name": "",
          "type": "uint256"
        }
      ],
      "stateMutability": "payable",
      "type": "function"
    },
    {
      "inputs": [],
      "name": "name",
      "outputs": [
        {
          "internalType": "string",
          "name": "",
          "type": "string"
        }
      ],
      "stateMutability": "view",
      "type": "function"
    },
    {
      "inputs": [],
      "name": "owner",
      "outputs": [
        {
          "internalType": "address",
          "name": "",
          "type": "address"
        }
      ],
      "stateMutability": "view",
      "type": "function"
    },
    {
      "inputs": [
        {
          "internalType": "uint256",
          "name": "",
          "type": "uint256"
        }
      ],
      "name": "ownerOf",
      "outputs": [
        {
          "internalType": "address",
          "name": "",
          "type": "address"
        }
      ],
      "stateMutability": "view",
      "type": "function"
    },
    {
      "inputs": [],
      "name": "renounceOwnership",
      "outputs": [],
      "stateMutability": "nonpayable",
      "type": "function"
    },
    {
      "inputs": [
        {
          "internalType": "address",
          "name": "operator",
          "type": "address"
        },
        {
          "internalType": "bool",
          "name": "approved",
          "type": "bool"
        }
      ],
      "name": "setApprovalForAll",
      "outputs": [],
      "stateMutability": "nonpayable",
      "type": "function"
    },
    {
      "inputs": [
        {
          "internalType": "bytes4",
          "name": "interfaceId",
          "type": "bytes4"
        }
      ],
      "name": "supportsInterface",
      "outputs": [
        {
          "internalType": "bool",
          "name": "",
          "type": "bool"
        }
      ],
      "stateMutability": "view",
      "type": "function"
    },
    {
      "inputs": [],
      "name": "symbol",
      "outputs": [
        {
          "internalType": "string",
          "name": "",
          "type": "string"
        }
      ],
      "stateMutability": "view",
      "type": "function"
    },
    {
      "inputs": [
        {
          "internalType": "uint256",
          "name": "tokenId",
          "type": "uint256"
        }
      ],
      "name": "tokenURI",
      "outputs": [
        {
          "internalType": "string",
          "name": "",
          "type": "string"
        }
      ],
      "stateMutability": "view",
      "type": "function"
    },
    {
      "inputs": [
        {
          "internalType": "address",
          "name": "from",
          "type": "address"
        },
        {
          "internalType": "address",
          "name": "to",
          "type": "address"
        },
        {
          "internalType": "uint256",
          "name": "id",
          "type": "uint256"
        }
      ],
      "name": "transferFrom",
      "outputs": [],
      "stateMutability": "nonpayable",
      "type": "function"
    },
    {
      "inputs": [
        {
          "internalType": "address",
          "name": "newOwner",
          "type": "address"
        }
      ],
      "name": "transferOwnership",
      "outputs": [],
      "stateMutability": "nonpayable",
      "type": "function"
    }
  ],
  "bytecode": {
    "object": "0x60806040523480156200001157600080fd5b5060405162001ff638038062001ff6833981016040819052620000349162000272565b8251839083906200004d906000906020850190620000ff565b50805162000063906001906020840190620000ff565b505050620000806200007a620000a960201b60201c565b620000ad565b600a80546001600160a01b0319166001600160a01b0392909216919091179055506200033b9050565b3390565b600680546001600160a01b038381166001600160a01b0319831681179093556040519116919082907f8be0079c531659141344cd1fd0a4f28419497f9722a3daafe3b4186f6b6457e090600090a35050565b8280546200010d90620002ff565b90600052602060002090601f0160209004810192826200013157600085556200017c565b82601f106200014c57805160ff19168380011785556200017c565b828001600101855582156200017c579182015b828111156200017c5782518255916020019190600101906200015f565b506200018a9291506200018e565b5090565b5b808211156200018a57600081556001016200018f565b634e487b7160e01b600052604160045260246000fd5b600082601f830112620001cd57600080fd5b81516001600160401b0380821115620001ea57620001ea620001a5565b604051601f8301601f19908116603f01168101908282118183101715620002155762000215620001a5565b816040528381526020925086838588010111156200023257600080fd5b600091505b8382101562000256578582018301518183018401529082019062000237565b83821115620002685760008385830101525b9695505050505050565b6000806000606084860312156200028857600080fd5b83516001600160401b0380821115620002a057600080fd5b620002ae87838801620001bb565b94506020860151915080821115620002c557600080fd5b50620002d486828701620001bb565b604086015190935090506001600160a01b0381168114620002f457600080fd5b809150509250925092565b600181811c908216806200031457607f821691505b6020821081036200033557634e487b7160e01b600052602260045260246000fd5b50919050565b611cab806200034b6000396000f3fe6080604052600436106101435760003560e01c8063715018a6116100c0578063a22cb46511610074578063d05dcc6a11610059578063d05dcc6a1461037c578063e985e9c5146103a9578063f2fde38b146103e457600080fd5b8063a22cb4651461033c578063c87b56dd1461035c57600080fd5b80638da5cb5b116100a55780638da5cb5b146102f3578063902d55a51461031157806395d89b411461032757600080fd5b8063715018a6146102cb578063755edd17146102e057600080fd5b8063095ea7b3116101175780636352211e116100fc5780636352211e146102535780636c0360eb1461028957806370a082311461029e57600080fd5b8063095ea7b31461021157806323b872dd1461023357600080fd5b80629a9b7b1461014857806301ffc9a71461017157806306fdde03146101a1578063081812fc146101c3575b600080fd5b34801561015457600080fd5b5061015e60085481565b6040519081526020015b60405180910390f35b34801561017d57600080fd5b5061019161018c366004611270565b610404565b6040519015158152602001610168565b3480156101ad57600080fd5b506101b66104a1565b60405161016891906112fd565b3480156101cf57600080fd5b506101f96101de366004611310565b6004602052600090815260409020546001600160a01b031681565b6040516001600160a01b039091168152602001610168565b34801561021d57600080fd5b5061023161022c366004611345565b61052f565b005b34801561023f57600080fd5b5061023161024e36600461136f565b610632565b34801561025f57600080fd5b506101f961026e366004611310565b6003602052600090815260409020546001600160a01b031681565b34801561029557600080fd5b506101b6610834565b3480156102aa57600080fd5b5061015e6102b93660046113ab565b60026020526000908152604090205481565b3480156102d757600080fd5b50610231610841565b61015e6102ee3660046113ab565b6108a7565b3480156102ff57600080fd5b506006546001600160a01b03166101f9565b34801561031d57600080fd5b5061015e61271081565b34801561033357600080fd5b506101b6610a37565b34801561034857600080fd5b506102316103573660046113c6565b610a44565b34801561036857600080fd5b506101b6610377366004611310565b610ab0565b34801561038857600080fd5b5061015e610397366004611310565b60096020526000908152604090205481565b3480156103b557600080fd5b506101916103c4366004611402565b600560209081526000928352604080842090915290825290205460ff1681565b3480156103f057600080fd5b506102316103ff3660046113ab565b610c57565b60007f01ffc9a7000000000000000000000000000000000000000000000000000000006001600160e01b03198316148061046757507f80ac58cd000000000000000000000000000000000000000000000000000000006001600160e01b03198316145b8061049b57507f5b5e139f000000000000000000000000000000000000000000000000000000006001600160e01b03198316145b92915050565b600080546104ae90611435565b80601f01602080910402602001604051908101604052809291908181526020018280546104da90611435565b80156105275780601f106104fc57610100808354040283529160200191610527565b820191906000526020600020905b81548152906001019060200180831161050a57829003601f168201915b505050505081565b6000818152600360205260409020546001600160a01b03163381148061057857506001600160a01b038116600090815260056020908152604080832033845290915290205460ff165b6105c95760405162461bcd60e51b815260206004820152600e60248201527f4e4f545f415554484f52495a454400000000000000000000000000000000000060448201526064015b60405180910390fd5b600082815260046020526040808220805473ffffffffffffffffffffffffffffffffffffffff19166001600160a01b0387811691821790925591518593918516917f8c5be1e5ebec7d5bd14f71427d1e84f3dd0314c0f7b2291e5b200ac8c7c3b92591a4505050565b6000818152600360205260409020546001600160a01b0384811691161461069b5760405162461bcd60e51b815260206004820152600a60248201527f57524f4e475f46524f4d0000000000000000000000000000000000000000000060448201526064016105c0565b6001600160a01b0382166106f15760405162461bcd60e51b815260206004820152601160248201527f494e56414c49445f524543495049454e5400000000000000000000000000000060448201526064016105c0565b336001600160a01b038416148061072b57506001600160a01b038316600090815260056020908152604080832033845290915290205460ff165b8061074c57506000818152600460205260409020546001600160a01b031633145b6107985760405162461bcd60e51b815260206004820152600e60248201527f4e4f545f415554484f52495a454400000000000000000000000000000000000060448201526064016105c0565b6001600160a01b03808416600081815260026020908152604080832080546000190190559386168083528483208054600101905585835260038252848320805473ffffffffffffffffffffffffffffffffffffffff199081168317909155600490925284832080549092169091559251849392917fddf252ad1be2c89b69c2b068fc378daa952ba7f163c4a11628f55a4df523b3ef91a4505050565b600780546104ae90611435565b6006546001600160a01b0316331461089b5760405162461bcd60e51b815260206004820181905260248201527f4f776e61626c653a2063616c6c6572206973206e6f7420746865206f776e657260448201526064016105c0565b6108a56000610d39565b565b60006001600160a01b0382166108ff5760405162461bcd60e51b815260206004820152601160248201527f494e56414c49445f524543495049454e5400000000000000000000000000000060448201526064016105c0565b60006008600081546109109061146f565b91829055506000818152600360205260409020549091506001600160a01b03161561097d5760405162461bcd60e51b815260206004820152600e60248201527f414c52454144595f4d494e54454400000000000000000000000000000000000060448201526064016105c0565b6127108111156109b9576040517fb36c128400000000000000000000000000000000000000000000000000000000815260040160405180910390fd5b600081815260096020908152604080832080547c271000000088ff89f8f58aef696af36abaef696af8f58a88ff8987fffe0190556001600160a01b0390951680835260028252858320805460010190558383526003909152939020805473ffffffffffffffffffffffffffffffffffffffff19169093179092555090565b600180546104ae90611435565b3360008181526005602090815260408083206001600160a01b03871680855290835292819020805460ff191686151590811790915590519081529192917f17307eab39ab6107e8899845ad3d59bd9653f200f220920489ca2b5937696c31910160405180910390a35050565b6000818152600360205260409020546060906001600160a01b0316610b01576040517fd872946b00000000000000000000000000000000000000000000000000000000815260040160405180910390fd5b600a546001600160a01b03166312496a1b8181610b1d86610d98565b610b2687611056565b610b2f88611142565b604051602001610b41939291906114b2565b6040516020818303038152906040526040518263ffffffff1660e01b8152600401610b6c91906112fd565b600060405180830381865afa158015610b89573d6000803e3d6000fd5b505050506040513d6000823e601f3d908101601f19168201604052610bb1919081019061150b565b604051602001610bc191906115b8565b6040516020818303038152906040526040518263ffffffff1660e01b8152600401610bec91906112fd565b600060405180830381865afa158015610c09573d6000803e3d6000fd5b505050506040513d6000823e601f3d908101601f19168201604052610c31919081019061150b565b604051602001610c419190611696565b6040516020818303038152906040529050919050565b6006546001600160a01b03163314610cb15760405162461bcd60e51b815260206004820181905260248201527f4f776e61626c653a2063616c6c6572206973206e6f7420746865206f776e657260448201526064016105c0565b6001600160a01b038116610d2d5760405162461bcd60e51b815260206004820152602660248201527f4f776e61626c653a206e6577206f776e657220697320746865207a65726f206160448201527f646472657373000000000000000000000000000000000000000000000000000060648201526084016105c0565b610d3681610d39565b50565b600680546001600160a01b0383811673ffffffffffffffffffffffffffffffffffffffff19831681179093556040519116919082907f8be0079c531659141344cd1fd0a4f28419497f9722a3daafe3b4186f6b6457e090600090a35050565b606060006009600084815260200190815260200160002054905060008060008060006040518061014001604052806101048152602001611a6a610104913990506000604051806060016040528060268152602001611c2a6026913990506000604051806060016040528060268152602001611c506026913990506000604051806060016040528060268152602001611bba60269139600a5460405162f7866b60e01b815262ffffff8c8116600483018190529b5060188d901c81169a5060308d901c8116995060488d901c16975091925060609186916001600160a01b03169062f7866b906024015b600060405180830381865afa158015610e9e573d6000803e3d6000fd5b505050506040513d6000823e601f3d908101601f19168201604052610ec6919081019061150b565b600a5460405162f7866b60e01b815262ffffff8c16600482015287916001600160a01b03169062f7866b90602401600060405180830381865afa158015610f11573d6000803e3d6000fd5b505050506040513d6000823e601f3d908101601f19168201604052610f39919081019061150b565b600a5460405162f7866b60e01b815262ffffff8d16600482015288916001600160a01b03169062f7866b90602401600060405180830381865afa158015610f84573d6000803e3d6000fd5b505050506040513d6000823e601f3d908101601f19168201604052610fac919081019061150b565b600a5460405162f7866b60e01b815262ffffff8e16600482015289916001600160a01b03169062f7866b90602401600060405180830381865afa158015610ff7573d6000803e3d6000fd5b505050506040513d6000823e601f3d908101601f1916820160405261101f919081019061150b565b6040516020016110369897969594939291906116db565b60408051601f198184030181529190529c9b505050505050505050505050565b60606000600960008481526020019081526020016000205490506000806000806000604051806060016040528060268152602001611b6e6026913990506000604051806060016040528060268152602001611be06026913990506000604051806060016040528060268152602001611b946026913990506000604051806060016040528060248152602001611c0660249139600a5460405162f7866b60e01b815260608c811c62ffffff908116600484018190529c5060788e901c81169b5060908e901c81169a5060a88e901c16985092935086916001600160a01b03169062f7866b90602401610e81565b6000818152600960205260409081902054600a54915163348051d760e11b815260d882901c62ffffff166004820181905260609390916001600160a01b0390911690636900a3ae90602401600060405180830381865afa1580156111aa573d6000803e3d6000fd5b505050506040513d6000823e601f3d908101601f191682016040526111d2919081019061150b565b600a5460405163348051d760e11b815262ffffff841660048201526001600160a01b0390911690636900a3ae90602401600060405180830381865afa15801561121f573d6000803e3d6000fd5b505050506040513d6000823e601f3d908101601f19168201604052611247919081019061150b565b604051602001611258929190611780565b60405160208183030381529060405292505050919050565b60006020828403121561128257600080fd5b81356001600160e01b03198116811461129a57600080fd5b9392505050565b60005b838110156112bc5781810151838201526020016112a4565b838111156112cb576000848401525b50505050565b600081518084526112e98160208601602086016112a1565b601f01601f19169290920160200192915050565b60208152600061129a60208301846112d1565b60006020828403121561132257600080fd5b5035919050565b80356001600160a01b038116811461134057600080fd5b919050565b6000806040838503121561135857600080fd5b61136183611329565b946020939093013593505050565b60008060006060848603121561138457600080fd5b61138d84611329565b925061139b60208501611329565b9150604084013590509250925092565b6000602082840312156113bd57600080fd5b61129a82611329565b600080604083850312156113d957600080fd5b6113e283611329565b9150602083013580151581146113f757600080fd5b809150509250929050565b6000806040838503121561141557600080fd5b61141e83611329565b915061142c60208401611329565b90509250929050565b600181811c9082168061144957607f821691505b60208210810361146957634e487b7160e01b600052602260045260246000fd5b50919050565b60006001820161148f57634e487b7160e01b600052601160045260246000fd5b5060010190565b600081516114a88185602086016112a1565b9290920192915050565b600084516114c48184602089016112a1565b8451908301906114d88183602089016112a1565b84519101906114eb8183602088016112a1565b0195945050505050565b634e487b7160e01b600052604160045260246000fd5b60006020828403121561151d57600080fd5b815167ffffffffffffffff8082111561153557600080fd5b818401915084601f83011261154957600080fd5b81518181111561155b5761155b6114f5565b604051601f8201601f19908116603f01168101908382118183101715611583576115836114f5565b8160405282815287602084870101111561159c57600080fd5b6115ad8360208301602088016112a1565b979650505050505050565b7f7b226e616d65223a20225261696e626f77222c20226465736372697074696f6e81527f223a20224269747061636b6564205261696e626f77206f6e20636861696e222c60208201527f2022696d616765223a2022646174613a696d6167652f7376672b786d6c3b626160408201527f736536342c0000000000000000000000000000000000000000000000000000006060820152600082516116628160658501602087016112a1565b7f227d0000000000000000000000000000000000000000000000000000000000006065939091019283015250606701919050565b7f646174613a6170706c69636174696f6e2f6a736f6e3b6261736536342c0000008152600082516116ce81601d8501602087016112a1565b91909101601d0192915050565b6000895160206116ee8285838f016112a1565b8a51918401916117018184848f016112a1565b8a519201916117138184848e016112a1565b89519201916117258184848d016112a1565b88519201916117378184848c016112a1565b87519201916117498184848b016112a1565b865192019161175b8184848a016112a1565b855192019161176d81848489016112a1565b919091019b9a5050505050505050505050565b7f272f3e3c2f6c696e6561724772616469656e743e3c2f646566733e3c7061747481527f65726e2069643d277061747465726e2720783d27302720793d2730272077696460208201527f74683d273430302527206865696768743d273130302527207061747465726e5560408201527f6e6974733d277573657253706163654f6e557365273e3c7265637420783d272d60608201527f313530252720793d2730272077696474683d273230302527206865696768743d60808201527f2731303025272066696c6c3d2775726c28236772616469656e7429272074726160a08201527f6e73666f726d3d27726f74617465282d363529273e3c616e696d61746520617460c08201527f74726962757465547970653d27584d4c27206174747269627574654e616d653d60e08201527f2778272066726f6d3d272d313530252720746f3d2735302527206475723d2700610100820152600061011f84516118eb81838601602089016112a1565b80840190507f6d732720726570656174436f756e743d27696e646566696e697465272f3e3c2f828201527f726563743e3c7265637420783d272d333530252720793d27302720776964746861013f8201527f3d273230302527206865696768743d2731303025272066696c6c3d2775726c2861015f8201527f236772616469656e742927207472616e73666f726d3d27726f74617465282d3661017f8201527f3529273e3c616e696d61746520617474726962757465547970653d27584d4c2761019f8201527f206174747269627574654e616d653d2778272066726f6d3d272d3335302527206101bf8201527f746f3d272d3135302527206475723d27000000000000000000000000000000006101df820152611a5f611a106101ef830187611496565b7f6d732720726570656174436f756e743d27696e646566696e697465272f3e3c2f81527f726563743e3c2f7061747465726e3e3c2f7376673e0000000000000000000000602082015260350190565b969550505050505056fe3c73766720786d6c6e733d27687474703a2f2f7777772e77332e6f72672f323030302f73766727207072657365727665417370656374526174696f3d27784d696e594d696e206d656574272076696577426f783d273020302033353020333530273e3c726563742077696474683d273130302527206865696768743d2731303025272066696c6c3d2775726c28237061747465726e2927202f3e3c646566733e3c6c696e6561724772616469656e742069643d276772616469656e74272078313d2731303025272079313d27313025272078323d273025272079323d27313025273e3c73746f70206f66667365743d27362e323525272073746f702d636f6c6f723d2723272f3e3c73746f70206f66667365743d2736382e373525272073746f702d636f6c6f723d2723272f3e3c73746f70206f66667365743d2739332e373525272073746f702d636f6c6f723d2723272f3e3c73746f70206f66667365743d2735362e323525272073746f702d636f6c6f723d2723272f3e3c73746f70206f66667365743d2738312e323525272073746f702d636f6c6f723d2723272f3e3c73746f70206f66667365743d2731303025272073746f702d636f6c6f723d2723272f3e3c73746f70206f66667365743d2731382e373525272073746f702d636f6c6f723d2723272f3e3c73746f70206f66667365743d2733312e323525272073746f702d636f6c6f723d2723a264697066735822122009094bca701e9470a93e00eaf96195276647800b44e8eac0ad056554b0ac64fe64736f6c634300080d0033",
    "linkReferences": {}
  }
}